:020000040800F2
:1000000000280020ED1600087D1600088316000861
:10001000891600088F1600089516000800000000D9
:100020000000000000000000000000009B16000817
:10003000A716000800000000B3160008BF1600084D
:100040003517000835170008351700083517000860
:100050003517000835170008351700083517000850
:100060003517000835170008351700083517000840
:100070003517000835170008351700083517000830
:100080003517000835170008351700083517000820
:100090003517000835170008351700083517000810
:1000A0003517000835170008351700083517000800
:1000B000CD160008351700080000000035170008AD
:1000C0003517000800000000000000003517000888
:1000D0000000000035170008351700080000000078
:1000E0003517000835170008351700080000000014
:1000F0000000000000000000000000000000000000
:0C01000000000000000000005FF808F1A3
:10010C0010B5054C237833B9044B13B10448AFF345
:10011C0000800123237010BD580000200000000057
:10012C00642D000808B5034B1BB103490348AFF31A
:10013C00008008BD000000005C000020642D000859
:10014C0080B500AF01220121094801F0F0FD012228
:10015C000221074801F0EBFD01220421044801F0C3
:10016C00E6FD01220821024801F0E1FD00BF80BD3F
:10017C00000C014080B584B000AFF860B9607A60C3
:10018C003B60FB68DBB21A4680211B4801F0CFFDB7
:10019C00BB68DBB21A464FF48071174801F0C7FDFB
:1001AC007B68DBB21A464FF40071134801F0BFFDB7
:1001BC003B68DBB21A464FF480610F4801F0B7FD83
:1001CC00BB69DBB21A464FF400610B4801F0AFFD7E
:1001DC00FB69DBB21A464FF48051074801F0A7FDCA
:1001EC003B6ADBB21A464FF40051034801F09FFD05
:1001FC0000BF1037BD4680BD0008014080B586B0F9
:10020C0004AF78607B68092B00F29A8001A252F847
:10021C0023F000BF49020008630200087D020008B9
:10022C0097020008B1020008CB020008E5020008A2
:10023C00FF0200081903000833030008012302938E
:10024C0000230193002300930023002200210020AF
:10025C00FFF790FF75E00123029301230193012323
:10026C0000930123002200210120FFF783FF68E0A7
:10027C000023029301230193002300930023012206
:10028C0000210020FFF776FF5BE00023029301239F
:10029C000193012300930023002200210020FFF78B
:1002AC0069FF4EE000230293002301930123009386
:1002BC000123002200210120FFF75CFF41E0002315
:1002CC0002930023019301230093002300220121B8
:1002DC000020FFF74FFF34E000230293002301932B
:1002EC00002300930023002201210020FFF742FF8E
:1002FC0027E001230293012301930123009301239F
:10030C00002200210020FFF735FF1AE000230293A2
:10031C0000230193002300930023002200210020DE
:10032C00FFF728FF0DE00023029300230193012324
:10033C0000930023002200210020FFF71BFF00E0A8
:10034C0000BF00BF0837BD4680BD00BF80B582B07E
:10035C0000AF7860FFF7F4FE7B68032B36D801A260
:10036C0052F823F08103000897030008AD0300083E
:10037C00C303000800220121174801F0D8FC174BD9
:10038C001B681846FFF73AFF21E0002202211248B1
:10039C0001F0CDFC114B5B681846FFF72FFF16E000
:1003AC00002204210C4801F0C2FC0C4B9B6818463F
:1003BC00FFF724FF0BE000220821074801F0B7FCEF
:1003CC00064BDB681846FFF719FF00E000BF00BFC3
:1003DC000837BD4680BD00BF000C01400000002066
:1003EC0080B483B000AF78607B68134A82FB031241
:1003FC009210DB17D11A104B83FB01239A10CB17E9
:10040C00D21A13469B0013445B00CA1A0B4B1A609A
:10041C007968094B83FB01239A10CB17D21A134628
:10042C009B0013445B00CA1A044B5A6000BF0C3784
:10043C00BD4680BC704700BF676666660000002042
:10044C0080B483B000AF78607B68134A82FB0312E0
:10045C009210DB17D11A104B83FB01239A10CB1788
:10046C00D21A13469B0013445B00CA1A0B4B9A60BA
:10047C007968094B83FB01239A10CB17D21A1346C8
:10048C009B0013445B00CA1A044BDA6000BF0C37A4
:10049C00BD4680BC704700BF6766666600000020E2
:1004AC0080B483B000AF7860094A7B6852F823307F
:1004BC00012B06D1064A7B68002142F82310012348
:1004CC0000E0002318460C37BD4680BC704700BFC7
:1004DC003001002080B582B000AF00237B60A5E026
:1004EC00574A7B6852F8232056497B6841F82320F1
:1004FC00554A7B6852F8232051497B6841F82320E8
:10050C007B68032B36D801A252F823F0290500088A
:10051C003F050008550500086B05000810214B48E5
:10052C0001F0EEFB03461946474A7B6842F823105C
:10053C0021E02021454801F0E3FB03461946424ADD
:10054C007B6842F8231016E04021404801F0D8FBAC
:10055C00034619463C4A7B6842F823100BE0802185
:10056C003A4801F0CDFB03461946374A7B6842F8FE
:10057C00231000E000BF334A7B6852F82320304937
:10058C007B6851F823309A424DD12D4A7B6852F842
:10059C0023202D497B6851F823309A4243D12C4AB1
:1005AC007B6852F8232028497B6851F823309A4203
:1005BC0019D0254A7B6852F8232025497B6841F8DD
:1005CC002320234A7B6852F82330012B2BD1214A5C
:1005DC007B68012142F823101F4A7B684FF4FA71A3
:1005EC0042F823101FE01A4A7B6852F82330012B83
:1005FC0019D1194A7B6852F823305A1E16497B6868
:10060C0041F82320144A7B6852F82330002B0AD17E
:10061C00124A7B68012142F823100F4A7B684FF481
:10062C00FA7142F823107B6801337B607B68092BDD
:10063C007FF756AF00BF00BF0837BD4680BD00BF77
:10064C009C00002074000020C4000020000C01401D
:10065C00EC00002030010020100000208001002060
:10066C0080B582B000AF786039607868FFF7B8FE6B
:10067C003868FFF7E5FE00BF0837BD4680BD0000B7
:10068C0080B500AF104B1B68002B04DD0E4B1B68B4
:10069C00013B0D4A13600D4B1B68002B04DD0B4B0B
:1006AC001B68013B094A1360074B1B68074A126819
:1006BC0011461846FFF7D4FF4FF47A71012000F071
:1006CC0063FF00BF80BD00BF140100201801002093
:1006DC0080B500AF054B03221A6042F21071022064
:1006EC0000F052FF00F0E4FB00BF80BD380000209A
:1006FC0080B500AF7D4B1B68023B0C2B00F2EA80EF
:10070C0001A252F823F000BF49070008E1080008D5
:10071C00E1080008E1080008E1080008E108000809
:10072C00E1080008E1080008E10800083B0800089F
:10073C0093070008E3070008890800086B4B0C229C
:10074C001A606B4B1B68013B6A4A13606A4B1B684F
:10075C00013B6A4A1360674B1B68684A1268114672
:10076C001846FFF77DFF624B1B684FF47A7202FB51
:10077C0003F31946002000F007FF4FF47A710120B3
:10078C0000F002FFAFE000F089FA5D4B1B68012B13
:10079C0011D1564B0D221A605A4B1B684FF47A72CA
:1007AC0002FB03F31946002000F0EEFE554B1B68CC
:1007BC00013B504A1360524B5B68012B01D1FFF790
:1007CC005FFF0020FFF76CFE0346002B00F08480D7
:1007DC00FFF77EFF80E000F085FA494B1B68012B88
:1007EC0016D1424B0B221A60414B1B684FF47A72A4
:1007FC0002FB03F31946002000F0C6FE3E4B1B68BB
:10080C00013B3C4A13603A4B1B68013B3B4A13606B
:10081C003B4B5B68012B01D1FFF732FF0020FFF748
:10082C003FFE0346002B59D0FFF752FF56E000F075
:10083C007DFA334B1B68012B11D12C4B0E221A6005
:10084C00304B1B684FF47A7202FB03F319460020FD
:10085C0000F09AFE2B4B1B68013B284A1360284B77
:10086C005B68012B01D1FFF70BFF0020FFF718FE8F
:10087C000346002B34D0FFF72BFF31E000F07AFA5F
:10088C001F4B1B68012B16D1184B0C221A60184BEE
:10089C001B684FF47A7202FB03F31946002000F038
:1008AC0073FE134B1B68013B124A1360124B1B68FF
:1008BC00013B124A1360124B5B68012B01D1FFF70D
:1008CC00DFFE0020FFF7ECFD0346002B0AD0FFF7FC
:1008DC00FFFE07E000BF06E000BF04E000BF02E03F
:1008EC0000BF00E000BF00BF80BD00BF380000208B
:1008FC0044000020140100203C00002018010020BE
:10090C003C0500204000002080B500AFBA4B1B68AE
:10091C00033B112B00F2648101A252F823F000BFBB
:10092C0075090008ED0B0008ED0B0008ED0B000835
:10093C00ED0B0008ED0B0008ED0B0008ED0B0008AB
:10094C00ED0B0008ED0B0008ED0B0008ED0B00089B
:10095C00ED0B0008ED0B0008ED0B0008E709000893
:10096C00930A00083D0B0008A44B1B681846FFF7C0
:10097C0037FD0020FFF764FDA14BDB68012B06D18E
:10098C004FF4FA71032000F0FFFD00F01BFB002078
:10099C00FFF786FD0346002B00F02481964B1222B4
:1009AC001A60964B02221A60964B1B68964A13608B
:1009BC00964B1B68964A1360964B1B68964A1360BD
:1009CC008E4B1B681846FFF70BFD8E4B1B681846A9
:1009DC00FFF736FD00F06CFA04E1894BDB68012B64
:1009EC0006D14FF4FA71032000F0CEFD00F084FA2A
:1009FC000020FFF755FD0346002B21D07E4B132220
:100A0C001A607E4B03221A607F4B1B68184600F05D
:100A1C0025FA7F4B1B68184600F02EFA7E4B1B689C
:100A2C00184600F037FA754B1B681846FFF7D8FCD0
:100A3C00764B1B681846FFF703FD00F039FAD8E037
:100A4C000120FFF72DFD0346002B07D000F0B6F96F
:100A5C006C4B1B681846FFF7F3FCCAE00220FFF74B
:100A6C001FFD0346002B00F0BF80634B03221A606E
:100A7C0042F21071022000F087FD00F019FA5F4B72
:100A8C0000221A60B5E05E4BDB68012B06D14FF4F7
:100A9C00FA71032000F078FD00F050FA0020FFF707
:100AAC00FFFC0346002B21D0534B14221A60534BEE
:100ABC0004221A60544B1B68184600F0CFF9544BB3
:100ACC001B68184600F0D8F9534B1B68184600F009
:100ADC00E1F94A4B1B681846FFF782FC4D4B1B682B
:100AEC001846FFF7ADFC00F0E3F982E00120FFF7B8
:100AFC00D7FC0346002B07D000F090F9434B1B6842
:100B0C001846FFF79DFC74E00220FFF7C9FC034672
:100B1C00002B6BD0384B03221A6042F2107102206A
:100B2C0000F032FD00F0C4F9344B00221A6060E092
:100B3C00334BDB68012B06D14FF4FA71032000F024
:100B4C0023FD00F01DFA0020FFF7AAFC0346002B42
:100B5C0024D0294B03221A6042F21071022000F0BB
:100B6C0013FD00F0A5F9254B00221A60264B1B68DB
:100B7C00184600F073F9264B1B68184600F07CF9F8
:100B8C00254B1B68184600F085F91C4B1B68184652
:100B9C00FFF726FC0020FFF753FC2AE00120FFF7AB
:100BAC007FFC0346002B07D000F020F9194B1B6883
:100BBC001846FFF745FC1CE00220FFF771FC0346CA
:100BCC00002B15D00C4B03221A6042F2107102203C
:100BDC0000F0DAFC00F06CF9084B00221A6008E017
:100BEC0000BF06E000BF04E000BF02E000BF00E071
:100BFC0000BF00BF80BD00BF380000201C010020DA
:100C0C003C0500203C00002020010020400000207A
:100C1C0024010020440000202801002080B500AFF2
:100C2C001C4B1B68032B20D0032B2CDC012B02D07C
:100C3C00022B04D027E0174B02221A6028E0002078
:100C4C00FFF72EFC0346002B1FD0124B03221A6019
:100C5C0042F21071022000F097FC4FF4FA7103205D
:100C6C0000F092FC00F024F90FE00220FFF718FCD2
:100C7C000346002B03D1084B9B68012B07D1054B76
:100C8C0002221A6003E000BF02E000BF00E000BFD8
:100C9C0000BF80BD380000203C05002080B500AFAF
:100CAC00002210210E4801F042F8002220210C48AD
:100CBC0001F03DF801224021094801F038F80122E9
:100CCC000221074801F033F800220421044801F006
:100CDC002EF800220821024801F029F800BF80BD3F
:100CEC000008014080B500AF002210210E4801F031
:100CFC001EF8012220210C4801F019F80022402195
:100D0C00094801F014F801220221074801F00FF8FC
:100D1C0000220421044801F00AF8002208210248AC
:100D2C0001F005F800BF80BD0008014080B500AFA0
:100D3C00012210210E4800F0FAFF002220210C485D
:100D4C0000F0F5FF00224021094800F0F0FF0022DE
:100D5C000221074800F0EBFF00220421044800F0B8
:100D6C00E6FF01220821024800F0E1FF00BF80BD30
:100D7C000008014080B500AF012210210E4800F0A0
:100D8C00D6FF002220210C4800F0D1FF0022402188
:100D9C00094800F0CCFF00220221074800F0C7FFF1
:100DAC0001220421044800F0C2FF0022082102485D
:100DBC0000F0BDFF00BF80BD0008014080B400AF53
:100DCC00084B1B68622B09DC064B1B680133054A78
:100DDC001360054B1B680133034A136000BFBD460B
:100DEC0080BC70473C0000204400002080B400AF61
:100DFC00084B1B68622B09DC074B1B680133064A46
:100E0C001360044B1B680133024A136000BFBD46DC
:100E1C0080BC70473C0000204400002080B400AF30
:100E2C000B4B1B68622B0FDC0A4B1A680A4B1B68B6
:100E3C009A4209DA074B1B680133064A1360044BCC
:100E4C001B680133024A136000BFBD4680BC70476B
:100E5C003C000020400000204400002080B483B0FF
:100E6C0000AF7860034A7B68136000BF0C37BD4647
:100E7C0080BC70473C00002080B483B000AF786029
:100E8C00034A7B68136000BF0C37BD4680BC7047BB
:100E9C004000002080B483B000AF7860034A7B68C8
:100EAC00136000BF0C37BD4680BC70474400002067
:100EBC0080B500AF002210210E4800F038FF002250
:100ECC0020210C4800F033FF00224021094800F09B
:100EDC002EFF00220221074800F029FF00220421E6
:100EEC00044800F024FF00220821024800F01FFFF4
:100EFC0000BF80BD0008014080B500AF10210E4836
:100F0C0000F02DFF02210C4800F029FF00222021C7
:100F1C00094800F00CFF00224021074800F007FFB1
:100F2C0000220421044800F002FF0022082102489C
:100F3C0000F0FDFE00BF80BD0008014080B500AF91
:100F4C0020210E4800F00BFF04210C4800F007FF95
:100F5C0000221021094800F0EAFE00224021074837
:100F6C0000F0E5FE00220221044800F0E0FE002221
:100F7C000821024800F0DBFE00BF80BD00080140E4
:100F8C0080B500AF40210E4800F0E9FE08210C4866
:100F9C0000F0E5FE00221021094800F0C8FE0022F6
:100FAC002021074800F0C3FE00220221044800F073
:100FBC00BEFE00220421024800F0B9FE00BF80BD35
:100FCC000008014080B500AF10210C4800F0C7FEAE
:100FDC0002210A4800F0C3FE2021084800F0BFFEA1
:100FEC000421064800F0BBFE4021044800F0B7FE87
:100FFC000821024800F0B3FE00BF80BD000801408C
:10100C0080B500AF00F092FB00F026F800F0ACF8D1
:10101C0000F05EF80C4801F0E7FA00F04BF94FF4E1
:10102C00FA720021094800F05FF94FF47A7200213E
:10103C00074800F059F94FF47A720021054800F086
:10104C0053F900F011FAFCE7C8040020391200082B
:10105C00451200085912000880B590B000AF07F196
:10106C00180328220021184601F06EFE3B1D0022B9
:10107C001A605A609A60DA601A610223BB6101231C
:10108C00BB621023FB6200237B6307F11803184635
:10109C0000F07EFE0346002B01D000F005F90F2373
:1010AC007B600023BB600023FB6000233B610023BB
:1010BC007B613B1D0021184601F0EAF80346002B2A
:1010CC0001D000F0F1F800BF4037BD4680BD0000F4
:1010DC0080B586B000AF07F1080300221A605A6091
:1010EC009A60DA603B4600221A605A601D4B4FF042
:1010FC0080421A601B4B41F63F725A60194B00221A
:10110C009A60184B0922DA60164B00221A61154BB3
:10111C0000229A61134801F017FA0346002B01D004
:10112C0000F0C2F84FF48053BB6007F10803194676
:10113C000C4801F095FB0346002B01D000F0B4F8ED
:10114C0000233B6000237B603B461946054801F0B9
:10115C006DFD0346002B01D000F0A6F800BF183738
:10116C00BD4680BDC804002080B586B000AF07F135
:10117C00080300221A605A609A60DA60284B9B6957
:10118C00274A43F004039361254B9B6903F0040346
:10119C007B607B68224B9B69214A43F00803936177
:1011AC001F4B9B6903F008033B603B68002243F62E
:1011BC00FE711C4800F0BBFD002248F20F011A48DA
:1011CC0000F0B5FD43F6FE73BB600123FB6000230A
:1011DC003B6102237B6107F108031946114800F0BB
:1011EC0015FC48F20F03BB600123FB6000233B613D
:1011FC0002237B6107F1080319460B4800F006FC3B
:10120C00F023BB600023FB6001233B6107F1080363
:10121C001946054800F0FAFB00BF1837BD4680BDE3
:10122C000010024000080140000C014080B500AFE6
:10123C00FFF750F900BF80BD80B500AFFFF7EEFCA3
:10124C00FFF756FAFFF760FB00BF80BD80B500AF1B
:10125C00094B1B681846FFF779F8074B1B680133DD
:10126C005A4203F0030302F0030258BF5342024AEE
:10127C00136000BF80BD00BF2C01002080B582B080
:10128C0000AF78607B681B68B3F1804F06D14FF4D8
:10129C000041044800F063FD00F078F800BF083707
:1012AC00BD4680BD000C014080B400AF72B600BFDB
:1012BC00FEE7000080B582B000AF0023FB7106E0B2
:1012CC00FB79184600F01AF9FB790133FB71FB79B5
:1012DC00272BF5D9034B00221A7000BF0837BD46E7
:1012EC0080BD00BF1005002080B487B000AFF8604F
:1012FC00B9607A600023FB7502E0FB7D0133FB755E
:10130C00FA7D204913469B0013449B000B441B6839
:10131C00002B02D0FB7D272BEFD9FB7D282B04D192
:10132C00194B01221A70282327E0FA7D1549134620
:10133C009B0013449B000B44FA681A60FA7D114918
:10134C0013469B0013449B000B440433BA681A6089
:10135C00FA7D0C4913469B0013449B000B44083345
:10136C007A681A60FA7D074913469B0013449B0068
:10137C000B440C3300221A70FB7D18461C37BD46FB
:10138C0080BC7047A80100201005002080B483B0F9
:10139C0000AF0023FB715BE0FA79324913469B00E6
:1013AC0013449B000B441B68002B4ED0FA792D493B
:1013BC0013469B0013449B000B4404331B68002B07
:1013CC0031D1FA79274913469B0013449B000B44F7
:1013DC000C331B780133D8B2224913469B001344BB
:1013EC009B000B440C3302461A70FA791D491346C4
:1013FC009B0013449B000B4408331B68002B24D028
:10140C00F979FA7917480B469B000B449B0003446F
:10141C0008331968134813469B0013449B0003447C
:10142C000433196011E0FA790E4913469B001344FA
:10143C009B000B4404331B68591E0A4813469B003F
:10144C0013449B00034404331960FB790133FB7193
:10145C00FB79272BA0D900BF00BF0C37BD4680BC41
:10146C00704700BFA801002080B582B000AF0023F8
:10147C00FB7139E0FA79204913469B0013449B0019
:10148C000B440C331B78002B2BD0FA791A491346DA
:10149C009B0013449B000B441B689847FA79164930
:1014AC0013469B0013449B000B440C331B78013BED
:1014BC00D8B2114913469B0013449B000B440C33C8
:1014CC0002461A70FA790C4913469B0013449B0090
:1014DC000B4408331B68002B03D1FB79184600F032
:1014EC000DF8FB790133FB71FB79272BC2D900BFB7
:1014FC0000BF0837BD4680BDA801002080B483B072
:10150C0000AF0346FB71FA791D4913469B00134447
:10151C009B000B441B68002B04D11A4B02221A703F
:10152C00032327E0FA79164913469B0013449B00CA
:10153C000B4400221A60FA79114913469B0013449C
:10154C009B000B44043300221A60FA790C491346B1
:10155C009B0013449B000B44083300221A60FA7959
:10156C00074913469B0013449B000B440C33002289
:10157C001A70042318460C37BD4680BC704700BF58
:10158C00A80100201005002080B483B000AF786063
:10159C003960094A7B68002142F82310074B1B680D
:1015AC003A6892FBF3F206497B6841F8232000BFAE
:1015BC000C37BD4680BC70473C050020480000201D
:1015CC001405002080B485B000AF154B9B69144AFC
:1015DC0043F001039361124B9B6903F00103BB6061
:1015EC00BB680F4BDB690E4A43F08053D3610C4B45
:1015FC00DB6903F080537B607B680A4B5B68FB60A4
:10160C00FB6823F0E063FB60FB6843F08063FB60E6
:10161C00044AFB68536000BF1437BD4680BC70475A
:10162C00001002400000014080B584B000AF78602B
:10163C007B681B68B3F1804F13D10C4BDB690B4AF1
:10164C0043F00103D361094BDB6903F00103FB6039
:10165C00FB68002200211C2000F0A1F91C2000F0E6
:10166C00BAF900BF1037BD4680BD00BF0010024064
:10167C0080B400AFFEE780B400AFFEE780B400AFEB
:10168C00FEE780B400AFFEE780B400AFFEE780B4A5
:10169C0000AF00BFBD4680BC704780B400AF00BF38
:1016AC00BD4680BC704780B400AF00BFBD4680BC57
:1016BC00704780B500AF00F07FF800BF80BD000020
:1016CC0080B500AF024800F0DBFF00BF80BD00BF5B
:1016DC00C804002080B400AF00BFBD4680BC70477A
:1016EC00FFF7F8FF0B480C490C4A002302E0D458D2
:1016FC00C4500433C4188C42F9D3094A094C002352
:10170C0001E013600432A242FBD301F0F9FAFFF7B7
:10171C0077FC70470000002058000020A82D00081E
:10172C005800002068050020FEE7000080B500AFDF
:10173C00084B1B68074A43F010031360032000F0AA
:10174C0023F90F2000F008F8FFF73CFF00231846A0
:10175C0080BD00BF0020024080B582B000AF786031
:10176C00124B1A68124B1B7819464FF47A73B3FB61
:10177C00F1F3B2FBF3F3184600F03BF90346002BF0
:10178C0001D001230EE07B680F2B0AD80022796868
:10179C004FF0FF3000F003F9064A7B68136000231A
:1017AC0000E0012318460837BD4680BD4C000020E0
:1017BC00540000205000002080B400AF054B1B7873
:1017CC001A46054B1B681344034A136000BFBD4601
:1017DC0080BC7047540000206405002080B400AF2A
:1017EC00024B1B681846BD4680BC70476405002040
:1017FC0080B485B000AF78607B6803F00703FB60B2
:10180C000C4BDB68BB60BA684FF6FF031340BB6040
:10181C00FB681A02BB68134343F0BF6343F4003305
:10182C00BB60044ABB68D36000BF1437BD4680BCA4
:10183C00704700BF00ED00E080B400AF044BDB68E4
:10184C001B0A03F007031846BD4680BC704700BF57
:10185C0000ED00E080B483B000AF0346FB7197F954
:10186C000730002B0BDBFB7903F01F02064997F9BD
:10187C0007305B09012000FA02F241F8232000BF77
:10188C000C37BD4680BC704700E100E080B483B0EB
:10189C0000AF03463960FB7197F90730002B0ADB68
:1018AC003B68DAB20C4997F907301201D2B20B44FB
:1018BC0083F800230AE03B68DAB20849FB7903F0AD
:1018CC000F03043B1201D2B20B441A7600BF0C3743
:1018DC00BD4680BC704700BF00E100E000ED00E0B9
:1018EC0080B489B000AFF860B9607A60FB6803F02F
:1018FC000703FB61FB69C3F10703042B28BF042317
:10190C00BB61FB690433062B02D9FB69033B00E086
:10191C0000237B614FF0FF32BB6902FA03F3DA4319
:10192C00BB681A407B699A404FF0FF317B6901FA22
:10193C0003F3D9437B680B40134318462437BD4649
:10194C0080BC704780B582B000AF78607B68013B8B
:10195C00B3F1807F01D301230FE00A4A7B68013B7E
:10196C0053600F214FF0FF30FFF790FF054B002223
:10197C009A60044B07221A60002318460837BD46AC
:10198C0080BD00BF10E000E080B582B000AF786091
:10199C007868FFF72DFF00BF0837BD4680BD80B5C6
:1019AC0086B000AF0346B9607A60FB7300237B619D
:1019BC00FFF742FF78617A68B9687869FFF790FFA2
:1019CC00024697F90F3011461846FFF75FFF00BF2C
:1019DC001837BD4680BD80B582B000AF0346FB71A1
:1019EC0097F907301846FFF735FF00BF0837BD469B
:1019FC0080BD80B582B000AF78607868FFF7A2FF39
:101A0C00034618460837BD4680BD000080B48BB035
:101A1C0000AF7860396000237B6200233B6248E1B1
:101A2C0001227B6A02FA03F3FB613B681B68FA69CB
:101A3C001340BB61BA69FB699A4240F037813B683D
:101A4C005B68A34A93425ED0A14A934275D8A14ADF
:101A5C00934258D09F4A93426FD89F4A934252D098
:101A6C009D4A934269D89D4A93424CD09B4A9342DB
:101A7C0063D89B4A934246D0994A93425DD8122B25
:101A8C002AD8122B59D801A252F823F0131B0008A4
:101A9C00ED1A0008FF1A0008411B0008471B00083C
:101AAC00471B0008471B0008471B0008471B000882
:101ABC00471B0008471B0008471B0008471B000872
:101ACC00471B0008471B0008471B0008471B000862
:101ADC00F51A0008091B0008824A934213D02CE027
:101AEC003B68DB683B6229E03B68DB6804333B62A4
:101AFC0024E03B68DB6808333B621FE03B68DB6833
:101B0C000C333B621AE03B689B68002B02D1042328
:101B1C003B6213E03B689B68012B05D108233B62B9
:101B2C007B68FA691A6109E008233B627B68FA69F1
:101B3C005A6103E000233B6200E000BFBB69FF2B4E
:101B4C0001D87B6801E07B6804337B61BB69FF2BA8
:101B5C0002D87B6A9B0002E07B6A083B9B003B61DE
:101B6C007B691A680F213B6901FA03F3DB431A40C6
:101B7C00396A3B6901FA03F31A437B691A603B68C3
:101B8C005B6803F08053002B00F09080564B9B69F0
:101B9C00554A43F001039361534B9B6903F00103D6
:101BAC00BB60BB68514A7B6A9B08023352F82330F6
:101BBC00FB607B6A03F003039B000F2202FA03F322
:101BCC00DB43FA681340FB607B68494A93420DD0B3
:101BDC007B68484A934207D07B68474A934201D1BD
:101BEC00022304E0032302E0012300E000237A6ACD
:101BFC0002F0030292009340FA681343FB603B49E6
:101C0C007B6A9B080233FA6841F823203B685B68C7
:101C1C0003F48013002B06D0384B9A683749BB6904
:101C2C0013438B6006E0354B9A68BB69DB43334941
:101C3C0013408B603B685B6803F40013002B06D0E9
:101C4C002E4BDA682D49BB691343CB6006E02B4B56
:101C5C00DA68BB69DB4329491340CB603B685B689E
:101C6C0003F40033002B06D0244B5A682349BB697C
:101C7C0013434B6006E0214B5A68BB69DB431F4999
:101C8C0013404B603B685B6803F48033002B06D039
:101C9C001A4B1A681949BB6913430B6006E0174BC2
:101CAC001A68BB69DB43154913400B607B6A01332F
:101CBC007B623B681A687B6A22FA03F3002B7FF481
:101CCC00AFAE00BF00BF2C37BD4680BC704700BF15
:101CDC000000321000003110000022100000211012
:101CEC000000121000001110001002400000014012
:101CFC0000080140000C01400010014000040140AC
:101D0C0080B485B000AF78600B467B807B689A68A6
:101D1C007B881340002B02D00123FB7301E00023CE
:101D2C00FB73FB7B18461437BD4680BC704780B4F0
:101D3C0083B000AF78600B467B8013467B707B785A
:101D4C00002B03D07A887B681A6103E07B881A0425
:101D5C007B681A6100BF0C37BD4680BC704780B4ED
:101D6C0085B000AF78600B467B807B68DB68FB60DE
:101D7C007A88FB6813401A04FB68D9437B880B40B4
:101D8C001A437B681A6100BF1437BD4680BC70478C
:101D9C0080B586B000AF78607B68002B01D1012341
:101DAC006CE27B681B6803F00103002B00F087805A
:101DBC00924B5B6803F00C03042B0CD08F4B5B68CD
:101DCC0003F00C03082B12D18C4B5B6803F48033AB
:101DDC00B3F5803F0BD1894B1B6803F40033002B08
:101DEC006CD07B685B68002B68D1012346E27B6872
:101DFC005B68B3F5803F06D1804B1B687F4A43F488
:101E0C00803313602EE07B685B68002B0CD17B4B1E
:101E1C001B687A4A23F480331360784B1B68774A2B
:101E2C0023F4802313601DE07B685B68B3F5A02F5F
:101E3C000CD1724B1B68714A43F4802313606F4BB7
:101E4C001B686E4A43F4803313600BE06B4B1B68CA
:101E5C006A4A23F480331360684B1B68674A23F487
:101E6C00802313607B685B68002B13D0FFF7B6FCF4
:101E7C00386108E0FFF7B2FC02463B69D31A642BC9
:101E8C0001D90323FAE15D4B1B6803F40033002BEB
:101E9C00F0D014E0FFF7A2FC386108E0FFF79EFCDD
:101EAC0002463B69D31A642B01D90323E6E1534B59
:101EBC001B6803F40033002BF0D100E000BF7B68FB
:101ECC001B6803F00203002B63D04C4B5B6803F0E0
:101EDC000C03002B0BD0494B5B6803F00C03082B55
:101EEC001CD1464B5B6803F48033002B16D1434B5B
:101EFC001B6803F00203002B05D07B681B69012BC8
:101F0C0001D00123BAE13D4B1B6823F0F8027B683A
:101F1C005B69DB00394913430B603AE07B681B6952
:101F2C00002B20D0364B01221A60FFF757FC38618A
:101F3C0008E0FFF753FC02463B69D31A022B01D988
:101F4C0003239BE12D4B1B6803F00203002BF0D005
:101F5C002A4B1B6823F0F8027B685B69DB0027497E
:101F6C0013430B6015E0264B00221A60FFF736FC7A
:101F7C00386108E0FFF732FC02463B69D31A022BAA
:101F8C0001D903237AE11D4B1B6803F00203002BDC
:101F9C00F0D17B681B6803F00803002B3AD07B68F8
:101FAC009B69002B19D0174B01221A60FFF716FC06
:101FBC00386108E0FFF712FC02463B69D31A022B8A
:101FCC0001D903235AE10D4B5B6A03F00203002B8A
:101FDC00F0D0012000F09AFA1CE00A4B00221A60A3
:101FEC00FFF7FCFB38610FE0FFF7F8FB02463B699B
:101FFC00D31A022B08D9032340E100BF0010024082
:10200C0000004242800442429E4B5B6A03F0020392
:10201C00002BE9D17B681B6803F00403002B00F054
:10202C00A6800023FB75974BDB6903F08053002BD4
:10203C000DD1944BDB69934A43F08053D361914BA0
:10204C00DB6903F08053BB60BB680123FB758E4BCF
:10205C001B6803F48073002B18D18B4B1B688A4AC6
:10206C0043F480731360FFF7B9FB386108E0FFF7A6
:10207C00B5FB02463B69D31A642B01D90323FDE05F
:10208C00814B1B6803F48073002BF0D07B68DB68FA
:10209C00012B06D17B4B1B6A7A4A43F00103136276
:1020AC002DE07B68DB68002B0CD1764B1B6A754AE4
:1020BC0023F001031362734B1B6A724A23F004036F
:1020CC0013621CE07B68DB68052B0CD16D4B1B6A23
:1020DC006C4A43F0040313626A4B1B6A694A43F06F
:1020EC00010313620BE0674B1B6A664A23F0010382
:1020FC001362644B1B6A634A23F0040313627B680C
:10210C00DB68002B15D0FFF769FB38610AE0FFF79D
:10211C0065FB02463B69D31A41F28832934201D9DE
:10212C000323ABE0574B1B6A03F00203002BEED0EA
:10213C0014E0FFF753FB38610AE0FFF74FFB024650
:10214C003B69D31A41F28832934201D9032395E0BB
:10215C004C4B1B6A03F00203002BEED1FB7D012BD1
:10216C0005D1484BDB69474A23F08053D3617B6828
:10217C00DB69002B00F08180424B5B6803F00C03A1
:10218C00082B61D07B68DB69022B46D13F4B0022C8
:10219C001A60FFF723FB386108E0FFF71FFB0246CC
:1021AC003B69D31A022B01D9032367E0354B1B681B
:1021BC0003F00073002BF0D17B681B6AB3F5803FF2
:1021CC0008D1304B5B6823F400327B689B682D4947
:1021DC0013434B602B4B5B6823F474127B68196AB6
:1021EC007B685B6A0B43274913434B60274B0122E7
:1021FC001A60FFF7F3FA386108E0FFF7EFFA0246CE
:10220C003B69D31A022B01D9032337E01D4B1B6802
:10221C0003F00073002BF0D02FE01C4B00221A604F
:10222C00FFF7DCFA386108E0FFF7D8FA02463B69A1
:10223C00D31A022B01D9032320E0124B1B6803F0A5
:10224C000073002BF0D118E07B68DB69012B01D106
:10225C00012313E00B4B5B68FB60FB6803F48032DB
:10226C007B681B6A9A4206D1FB6803F470127B6888
:10227C005B6A9A4201D0012300E00023184618370C
:10228C00BD4680BD0010024000700040600042421C
:10229C0080B584B000AF786039607B68002B01D1C9
:1022AC000123D0E06A4B1B6803F007033A689A429B
:1022BC0010D9674B1B6823F0070265493B68134331
:1022CC000B60634B1B6803F007033A689A4201D01A
:1022DC000123B8E07B681B6803F00203002B20D0BD
:1022EC007B681B6803F00403002B05D0594B5B681B
:1022FC00584A43F4E06353607B681B6803F008039F
:10230C00002B05D0534B5B68524A43F46053536027
:10231C00504B5B6823F0F0027B689B684D4913437C
:10232C004B607B681B6803F00103002B40D07B687B
:10233C005B68012B07D1474B1B6803F40033002B60
:10234C0015D101237FE07B685B68022B07D1414BE1
:10235C001B6803F00073002B09D1012373E03D4B84
:10236C001B6803F00203002B01D101236BE0394BF6
:10237C005B6823F003027B685B68364913434B6050
:10238C00FFF72CFAF8600AE0FFF728FA0246FB6820
:10239C00D31A41F28832934201D9032353E02D4BD7
:1023AC005B6803F00C027B685B689B009A42EBD184
:1023BC00274B1B6803F007033A689A4210D2244B50
:1023CC001B6823F0070222493B6813430B60204B28
:1023DC001B6803F007033A689A4201D0012332E0EC
:1023EC007B681B6803F00403002B08D0194B5B6857
:1023FC0023F4E0627B68DB68164913434B607B680F
:10240C001B6803F00803002B09D0124B5B6823F404
:10241C0060527B681B69DB000E4913434B6000F074
:10242C0021F802460B4B5B681B0903F00F030A49AA
:10243C00CB5C22FA03F3094A1360094B1B6818465C
:10244C00FFF78AF9002318461037BD4680BD00BF40
:10245C0000200240001002407C2D00084C0000209F
:10246C005000002080B487B000AF0023FB60002335
:10247C00BB6000237B6100237B6000233B611E4B10
:10248C005B68FB60FB6803F00C03042B02D0082B89
:10249C0003D027E0194B3B6127E0FB689B0C03F052
:1024AC000F03174AD35C7B60FB6803F48033002B6B
:1024BC0010D0114B5B685B0C03F00103114AD35C29
:1024CC00BB607B680D4A02FB03F2BB68B2FBF3F303
:1024DC007B6104E07B680C4A02FB03F37B617B6944
:1024EC003B6102E0054B3B6100BF3B6918461C3762
:1024FC00BD4680BC704700BF0010024000127A003D
:10250C008C2D00089C2D000800093D0080B485B07E
:10251C0000AF78600A4B1B680A4AA2FB03235B0AD4
:10252C007A6802FB03F3FB6000BFFB685A1EFA607B
:10253C00002BF9D100BF00BF1437BD4680BC7047DB
:10254C004C000020D34D621080B582B000AF786093
:10255C007B68002B01D1012341E07B6893F83D306F
:10256C00DBB2002B06D17B68002283F83C20786814
:10257C00FFF75AF87B68022283F83D207B681A68C3
:10258C007B6804331946104600F056FA7B6801222A
:10259C0083F846207B68012283F83E207B68012269
:1025AC0083F83F207B68012283F840207B6801225E
:1025BC0083F841207B68012283F842207B6801224A
:1025CC0083F843207B68012283F844207B68012236
:1025DC0083F845207B68012283F83D2000231846B0
:1025EC000837BD4680BD000080B485B000AF786070
:1025FC007B6893F83D30DBB2012B01D0012335E031
:10260C007B68022283F83D207B681B68DA687B6854
:10261C001B6842F00102DA607B681B68164A934221
:10262C0009D07B681B68B3F1804F04D07B681B68B2
:10263C00124A934211D17B681B689B6803F0070315
:10264C00FB60FB68062B10D07B681B681A687B68E4
:10265C001B6842F001021A6007E07B681B681A686D
:10266C007B681B6842F001021A600023184614377D
:10267C00BD4680BC704700BF002C014000040040E8
:10268C0080B584B000AF78607B681B68DB68FB604A
:10269C007B681B681B69BB60BB6803F00203002BE3
:1026AC0020D0FB6803F00203002B1BD07B681B6857
:1026BC006FF002021A617B6801221A777B681B6833
:1026CC009B6903F00303002B03D0786800F098F9A2
:1026DC0005E0786800F08BF9786800F09AF97B686F
:1026EC0000221A77BB6803F00403002B20D0FB6890
:1026FC0003F00403002B1BD07B681B686FF00402F3
:10270C001A617B6802221A777B681B689B6903F449
:10271C004073002B03D0786800F072F905E07868FC
:10272C0000F065F9786800F074F97B6800221A777C
:10273C00BB6803F00803002B20D0FB6803F00803F0
:10274C00002B1BD07B681B686FF008021A617B683A
:10275C0004221A777B681B68DB6903F00303002BE8
:10276C0003D0786800F04CF905E0786800F03FF988
:10277C00786800F04EF97B6800221A77BB6803F08A
:10278C001003002B20D0FB6803F01003002B1BD090
:10279C007B681B686FF010021A617B6808221A773D
:1027AC007B681B68DB6903F44073002B03D07868EB
:1027BC0000F026F905E0786800F019F9786800F067
:1027CC0028F97B6800221A77BB6803F00103002B01
:1027DC000CD0FB6803F00103002B07D07B681B684F
:1027EC006FF001021A617868FEF748FDBB6803F0D0
:1027FC008003002B0CD0FB6803F08003002B07D068
:10280C007B681B686FF080021A61786800F06FFAC1
:10281C00BB6803F04003002B0CD0FB6803F04003B3
:10282C00002B07D07B681B686FF040021A61786838
:10283C0000F0F8F8BB6803F02003002B0CD0FB6809
:10284C0003F02003002B07D07B681B686FF020027D
:10285C001A61786800F042FA00BF1037BD4680BD9F
:10286C0080B584B000AF786039600023FB737B685F
:10287C0093F83C30012B01D10223B4E07B68012298
:10288C0083F83C207B68022283F83D207B681B6820
:10289C009B68BB60BB6823F07703BB60BB6823F409
:1028AC007F43BB607B681B68BA689A603B681B6897
:1028BC00B3F5005F3ED0B3F5005F00F28780B3F54F
:1028CC00805F00F08680B3F5805F7FD8702B1AD0C4
:1028DC00702B7BD8602B50D0602B77D8502B3CD0F2
:1028EC00502B73D8402B58D0402B6FD8302B64D042
:1028FC00302B6BD8202B60D0202B67D8002B5CD0D2
:10290C00102B5AD062E07B6818683B6899683B686A
:10291C005A683B68DB6800F06AF97B681B689B6847
:10292C00BB60BB6843F07703BB607B681B68BA680D
:10293C009A604FE07B6818683B6899683B685A68F6
:10294C003B68DB6800F053F97B681B689A687B680E
:10295C001B6842F480429A603CE07B6818683B68D4
:10296C0059683B68DB681A4600F0CAF87B681B683C
:10297C005021184600F021F92CE07B6818683B6860
:10298C0059683B68DB681A4600F0E8F87B681B68FE
:10299C006021184600F011F91CE07B6818683B6850
:1029AC0059683B68DB681A4600F0AAF87B681B681C
:1029BC004021184600F001F90CE07B681A683B686E
:1029CC001B681946104600F0F8F803E00123FB736E
:1029DC0000E000BF7B68012283F83D207B68002269
:1029EC0083F83C20FB7B18461037BD4680BD80B475
:1029FC0083B000AF786000BF0C37BD4680BC704719
:102A0C0080B483B000AF786000BF0C37BD4680BC8B
:102A1C00704780B483B000AF786000BF0C37BD4600
:102A2C0080BC704780B483B000AF786000BF0C37B7
:102A3C00BD4680BC7047000080B485B000AF7860A4
:102A4C0039607B681B68FB607B682B4A934207D01C
:102A5C007B68B3F1804F03D07B68284A934208D13E
:102A6C00FB6823F07003FB603B685B68FA681343F8
:102A7C00FB607B68204A934207D07B68B3F1804FA0
:102A8C0003D07B681D4A934208D1FB6823F4407342
:102A9C00FB603B68DB68FA681343FB60FB6823F060
:102AAC0080023B685B691343FB607B68FA681A60C1
:102ABC003B689A687B68DA623B681A687B689A6242
:102ACC007B680D4A934203D13B681A697B681A6391
:102ADC007B6801225A617B681B6903F00103002BA0
:102AEC0005D07B681B6923F001027B681A6100BF6B
:102AFC001437BD4680BC7047002C014000040040D8
:102B0C0080B487B000AFF860B9607A60FB681B6A6C
:102B1C007B61FB681B6A23F00102FB681A62FB688D
:102B2C009B693B613B6923F0F0033B617B681B01B4
:102B3C003A6913433B617B6923F00A037B617A6931
:102B4C00BB6813437B61FB683A699A61FB687A69DD
:102B5C001A6200BF1C37BD4680BC704780B487B07A
:102B6C0000AFF860B9607A60FB681B6A7B61FB6838
:102B7C001B6A23F01002FB681A62FB689B693B61BD
:102B8C003B6923F470433B617B681B033A69134335
:102B9C003B617B6923F0A0037B61BB681B017A69F5
:102BAC0013437B61FB683A699A61FB687A691A6224
:102BBC0000BF1C37BD4680BC704780B485B000AFE9
:102BCC00786039607B689B68FB60FB6823F070035E
:102BDC00FB603A68FB68134343F00703FB607B68B8
:102BEC00FA689A6000BF1437BD4680BC704780B449
:102BFC0087B000AFF860B9607A603B60FB689B6897
:102C0C007B617B6923F47F437B613B681A027B68A1
:102C1C001A43BB6813437A6913437B61FB687A6977
:102C2C009A6000BF1C37BD4680BC704780B485B02D
:102C3C0000AF786039607B6893F83C30012B01D190
:102C4C00022341E07B68012283F83C207B6802224E
:102C5C0083F83D207B681B685B68FB607B681B68A6
:102C6C009B68BB60FB6823F07003FB603B681B68D0
:102C7C00FA681343FB607B681B68FA685A607B68D0
:102C8C001B68144A934209D07B681B68B3F1804FD0
:102C9C0004D07B681B68104A93420CD1BB6823F0AC
:102CAC008003BB603B685B68BA681343BB607B689E
:102CBC001B68BA689A607B68012283F83D207B68A8
:102CCC00002283F83C20002318461437BD4680BCF4
:102CDC00704700BF002C01400004004080B483B05A
:102CEC0000AF786000BF0C37BD4680BC704780B425
:102CFC0083B000AF786000BF0C37BD4680BC704716
:102D0C0070B500260C4D0D4C641BA410A64209D1C5
:102D1C0000F022F800260A4D0A4C641BA410A642AF
:102D2C0005D170BD55F8043B98470136EEE755F8D0
:102D3C00043B98470136F2E7A02D0008A02D0008AF
:102D4C00A02D0008A42D000803460244934200D194
:102D5C00704703F8011BF9E7F8B500BFF8BC08BCD5
:102D6C009E467047F8B500BFF8BC08BC9E4670473D
:102D7C00000000000000000001020304060708091F
:102D8C0002030405060708090A0B0C0D0E0F1010A0
:042D9C000102000030
:042DA00031010008F5
:042DA4000D01000815
:102DA8000100000002000000030000000400000011
:102DB800F401000000000000000000000000000016
:102DC80000000000000000000000000000000000FB
:102DD80000000000000000000100000005000000E5
:102DE80002000000030000000A00000000127A0040
:082DF8001000000001000000C2
:04000005080016EDEC
:00000001FF
