:020000040800F2
:100000000028002001150008891400089114000838
:1000100099140008A1140008A914000800000000A9
:10002000000000000000000000000000B114000803
:10003000BD14000800000000C9140008D514000811
:100040004915000849150008491500084915000818
:100050004915000849150008491500084915000808
:1000600049150008491500084915000849150008F8
:1000700049150008491500084915000849150008E8
:1000800049150008491500084915000849150008D8
:1000900049150008491500084915000849150008C8
:1000A00049150008491500084915000849150008B8
:1000B000E114000849150008000000004915000877
:1000C0004915000800000000000000004915000864
:1000D0000000000049150008491500080000000054
:1000E00049150008491500084915000800000000DE
:1000F0000000000000000000000000000000000000
:0C01000000000000000000005FF808F1A3
:10010C0010B5054C237833B9044B13B10448AFF345
:10011C0000800123237010BD580000200000000057
:10012C00802B000808B5034B1BB103490348AFF300
:10013C00008008BD000000005C000020802B00083F
:10014C0080B500AF01220121094801F0FCFC01221D
:10015C000221074801F0F7FC01220421044801F0B8
:10016C00F2FC01220821024801F0EDFC00BF80BD29
:10017C00000C014080B584B000AFF860B9607A60C3
:10018C003B60FB68DBB21A4680211B4801F0DBFCAC
:10019C00BB68DBB21A464FF48071174801F0D3FCF0
:1001AC007B68DBB21A464FF40071134801F0CBFCAC
:1001BC003B68DBB21A464FF480610F4801F0C3FC78
:1001CC00BB69DBB21A464FF400610B4801F0BBFC73
:1001DC00FB69DBB21A464FF48051074801F0B3FCBF
:1001EC003B6ADBB21A464FF40051034801F0ABFCFA
:1001FC0000BF1037BD4680BD0008014080B586B0F9
:10020C0004AF78607B68092B00F29A8001A252F847
:10021C0023F000BF49020008630200087D020008B9
:10022C0097020008B1020008CB020008E5020008A2
:10023C00FF0200081903000833030008012302938E
:10024C0000230193002300930023002200210020AF
:10025C00FFF790FF75E00123029301230193012323
:10026C0000930123002200210120FFF783FF68E0A7
:10027C000023029301230193002300930023012206
:10028C0000210020FFF776FF5BE00023029301239F
:10029C000193012300930023002200210020FFF78B
:1002AC0069FF4EE000230293002301930123009386
:1002BC000123002200210120FFF75CFF41E0002315
:1002CC0002930023019301230093002300220121B8
:1002DC000020FFF74FFF34E000230293002301932B
:1002EC00002300930023002201210020FFF742FF8E
:1002FC0027E001230293012301930123009301239F
:10030C00002200210020FFF735FF1AE000230293A2
:10031C0000230193002300930023002200210020DE
:10032C00FFF728FF0DE00023029300230193012324
:10033C0000930023002200210020FFF71BFF00E0A8
:10034C0000BF00BF0837BD4680BD00BF80B582B07E
:10035C0000AF7860FFF7F4FE7B68032B36D801A260
:10036C0052F823F08103000897030008AD0300083E
:10037C00C303000800220121174801F0E4FB174BCE
:10038C001B681846FFF73AFF21E0002202211248B1
:10039C0001F0D9FB114B5B681846FFF72FFF16E0F5
:1003AC00002204210C4801F0CEFB0C4B9B68184634
:1003BC00FFF724FF0BE000220821074801F0C3FBE4
:1003CC00064BDB681846FFF719FF00E000BF00BFC3
:1003DC000837BD4680BD00BF000C01400000002066
:1003EC0080B483B000AF78607B68134A82FB031241
:1003FC009210DB17D11A104B83FB01239A10CB17E9
:10040C00D21A13469B0013445B00CA1A0B4B1A609A
:10041C007968094B83FB01239A10CB17D21A134628
:10042C009B0013445B00CA1A044B5A6000BF0C3784
:10043C00BD4680BC704700BF676666660000002042
:10044C0080B483B000AF78607B68134A82FB0312E0
:10045C009210DB17D11A104B83FB01239A10CB1788
:10046C00D21A13469B0013445B00CA1A0B4B9A60BA
:10047C007968094B83FB01239A10CB17D21A1346C8
:10048C009B0013445B00CA1A044BDA6000BF0C37A4
:10049C00BD4680BC704700BF6766666600000020E2
:1004AC0080B500AF084B1B685A1C07490A601846F8
:1004BC00FFF74CFF044B1B68032B02DD024B0022A1
:1004CC001A6000BF80BD00BF7400002080B483B0F0
:1004DC0000AF7860094A7B6852F82330012B06D1B3
:1004EC00064A7B68002142F82310012300E0002318
:1004FC0018460C37BD4680BC704700BF4001002039
:10050C0080B582B000AF00237B60A5E0574A7B68C2
:10051C0052F8232056497B6841F82320554A7B68C2
:10052C0052F8232051497B6841F823207B68032B28
:10053C0036D801A252F823F0550500086B050008C7
:10054C00810500089705000810214B4801F0E4FADA
:10055C0003461946474A7B6842F8231021E02021C4
:10056C00454801F0D9FA03461946424A7B6842F8DD
:10057C00231016E04021404801F0CEFA03461946FC
:10058C003C4A7B6842F823100BE080213A4801F08A
:10059C00C3FA03461946374A7B6842F8231000E039
:1005AC0000BF334A7B6852F8232030497B6851F8EE
:1005BC0023309A424DD12D4A7B6852F823202D4985
:1005CC007B6851F823309A4243D12C4A7B6852F80D
:1005DC00232028497B6851F823309A4219D0254AA8
:1005EC007B6852F8232025497B6841F82320234A55
:1005FC007B6852F82330012B2BD1214A7B680121D7
:10060C0042F823101F4A7B684FF4FA7142F823100A
:10061C001FE01A4A7B6852F82330012B19D1194A72
:10062C007B6852F823305A1E16497B6841F8232008
:10063C00144A7B6852F82330002B0AD1124A7B688B
:10064C00012142F823100F4A7B684FF4FA7142F8EB
:10065C0023107B6801337B607B68092B7FF756AFD7
:10066C0000BF00BF0837BD4680BD00BFA000002002
:10067C0078000020C8000020000C0140F000002091
:10068C0040010020100000201801002080B582B02D
:10069C0000AF786039607868FFF7A2FE3868FFF722
:1006AC00CFFE00BF0837BD4680BD000080B500AF4F
:1006BC000C4B1B680C4A126811461846FFF7E6FFF4
:1006CC00084B1B68013B074A1360074B1B68013B37
:1006DC00054A13604FF47A71012000F02BFE00BF25
:1006EC0080BD00BF680100206C01002080B500AF08
:1006FC00054B03221A6042F21071022000F01AFE20
:10070C0000F03AFB00BF80BD3800002080B500AF80
:10071C007D4B1B68023B0C2B00F2EA8001A252F8C5
:10072C0023F000BF65070008FD080008FD0800085D
:10073C00FD080008FD080008FD080008FD08000879
:10074C00FD080008FD08000857080008AF0700085E
:10075C00FF070008A50800086B4B0C221A606B4BB6
:10076C001B68013B6A4A13606A4B1B68013B6A4A6F
:10077C001360674B1B68684A126811461846FFF7EE
:10078C0085FF624B1B6840F2DC5202FB03F31946F7
:10079C00002000F0CFFD4FF47A71012000F0CAFD6B
:1007AC00AFE000F021FA5D4B1B68012B11D1564BC9
:1007BC000D221A605A4B1B684FF47A7202FB03F33A
:1007CC001946002000F0B6FD554B1B68013B504A02
:1007DC001360524B5B68012B01D1FFF767FF0020C0
:1007EC00FFF774FE0346002B00F08480FFF77EFFBA
:1007FC0080E000F01DFA494B1B68012B16D1424BCF
:10080C000B221A60414B1B684FF47A7202FB03F304
:10081C001946002000F08EFD3E4B1B68013B3C4A04
:10082C0013603A4B1B68013B3B4A13603B4B5B68C4
:10083C00012B01D1FFF73AFF0020FFF747FE0346DB
:10084C00002B59D0FFF752FF56E000F015FA334B4E
:10085C001B68012B11D12C4B0E221A60304B1B68DC
:10086C004FF47A7202FB03F31946002000F062FD8C
:10087C002B4B1B68013B284A1360284B5B68012BF0
:10088C0001D1FFF713FF0020FFF720FE0346002BDA
:10089C0034D0FFF72BFF31E000F012FA1F4B1B682E
:1008AC00012B16D1184B0C221A60184B1B684FF4F5
:1008BC007A7202FB03F31946002000F03BFD134B48
:1008CC001B68013B124A1360124B1B68013B124A16
:1008DC001360124B5B68012B01D1FFF7E7FE002080
:1008EC00FFF7F4FD0346002B0AD0FFF7FFFE07E0ED
:1008FC0000BF06E000BF04E000BF02E000BF00E064
:10090C0000BF00BF80BD00BF3800002044000020A5
:10091C00680100203C0000206C01002048040020ED
:10092C004000002080B582B000AF78603960084A82
:10093C007B681360064B1B681846FFF751FD38683F
:10094C00FFF77EFD00F018FA00BF0837BD4680BDEA
:10095C007001002080B584B000AFF860B9607A6097
:10096C003B600020FFF7B2FD0346002B07D0174A6F
:10097C00FB6813603968B868FFF7D4FF21E00120E9
:10098C00FFF7A4FD0346002B08D07B68002B05D095
:10099C007B6898473868FFF753FD12E00220FFF799
:1009AC0095FD0346002B0CD0084B03221A6042F233
:1009BC001071022000F0BEFC00F0DEF9044B0022A6
:1009CC001A6000BF1037BD4680BD00BF3800002044
:1009DC007001002080B500AF574BDB68012B3DD177
:1009EC004FF4FA71032000F0A5FC544B1B68033B39
:1009FC00112B33D801A252F823F000BF510A000882
:100A0C00690A0008690A0008690A0008690A0008EE
:100A1C00690A0008690A0008690A0008690A0008DE
:100A2C00690A0008690A0008690A0008690A0008CE
:100A3C00690A0008690A0008570A00085D0A0008DC
:100A4C00630A000800F022FA08E000F0B9F905E0AA
:100A5C0000F0D8F902E000F0F7F900BF374B1B6843
:100A6C00033B112B62D801A252F823F0C10A0008F3
:100A7C00390B0008390B0008390B0008390B00083A
:100A8C00390B0008390B0008390B0008390B00082A
:100A9C00390B0008390B0008390B0008390B00081A
:100AAC00390B0008390B0008090B0008190B00085A
:100ABC00290B0008224B1B681846FFF791FC0020FD
:100ACC00FFF7BEFC0020FFF701FD0346002B2FD0E3
:100ADC001A4B12221A601B4B1B681B4A13601B4BD0
:100AEC001B681B4A13601B4B1B681B4A1360154B7E
:100AFC001B6819460220FFF715FF19E0114B1B6804
:100B0C00164A03211320FFF725FF12E00F4B1B6839
:100B1C00134A04211420FFF71DFF0AE00D4B1B683C
:100B2C00104A00210320FFF715FF02E000BF00E090
:100B3C0000BF00BF80BD00BF48040020380000206B
:100B4C00700100203C0000207401002040000020B7
:100B5C0078010020440000207C010020150D0008C5
:100B6C00610D0008390D000880B500AF1C4B1B68E7
:100B7C00032B20D0032B2CDC012B02D0022B04D016
:100B8C0027E0174B02221A6028E00020FFF79EFC9A
:100B9C000346002B1FD0124B03221A6042F2107135
:100BAC00022000F0C7FB4FF4FA71032000F0C2FBE7
:100BBC0000F0E2F80FE00220FFF788FC0346002B60
:100BCC0003D1084B9B68012B07D1054B02221A60FD
:100BDC0003E000BF02E000BF00E000BF00BF80BD2B
:100BEC00380000204804002080B500AF00221021FE
:100BFC000E4800F0A8FF002220210C4800F0A3FFB3
:100C0C0001224021094800F09EFF012202210748E1
:100C1C0000F099FF00220421044800F094FF002208
:100C2C000821024800F08FFF00BF80BD0008014082
:100C3C0080B500AF002210210E4800F084FF012285
:100C4C0020210C4800F07FFF00224021094800F0D1
:100C5C007AFF01220221074800F075FF00220421CF
:100C6C00044800F070FF00220821024800F06BFFDE
:100C7C0000BF80BD0008014080B500AF01221021EB
:100C8C000E4800F060FF002220210C4800F05BFFB2
:100C9C0000224021094800F056FF0022022107489B
:100CAC0000F051FF00220421044800F04CFF012207
:100CBC000821024800F047FF00BF80BD000801403A
:100CCC0080B500AF012210210E4800F03CFF00223D
:100CDC0020210C4800F037FF00224021094800F089
:100CEC0032FF00220221074800F02DFF01220421CF
:100CFC00044800F028FF00220821024800F023FFDE
:100D0C0000BF80BD0008014080B400AF064B1B68DB
:100D1C00622B04DC044B1B680133034A136000BFD5
:100D2C00BD4680BC704700BF3C00002080B400AFC3
:100D3C00064B1B68622B04DC054B1B680133044A11
:100D4C00136000BFBD4680BC704700BF3C00002054
:100D5C004400002080B400AF064B1B68622B04DCFF
:100D6C00044B1B680133034A136000BFBD4680BCB3
:100D7C00704700BF4000002080B500AF002210215A
:100D8C000E4800F0E0FE002220210C4800F0DBFEB3
:100D9C0000224021094800F0D6FE0022022107481B
:100DAC0000F0D1FE00220421044800F0CCFE002209
:100DBC000821024800F0C7FE00BF80BD00080140BA
:100DCC0080B500AF10210E4800F0D5FE02210C4872
:100DDC0000F0D1FE00222021094800F0B4FE0022D0
:100DEC004021074800F0AFFE00220421044800F027
:100DFC00AAFE00220821024800F0A5FE00BF80BD1B
:100E0C000008014080B500AF20210E4800F0B3FE71
:100E1C0004210C4800F0AFFE00221021094800F01C
:100E2C0092FE00224021074800F08DFE0022022194
:100E3C00044800F088FE00220821024800F083FEDE
:100E4C0000BF80BD0008014080B500AF40210E48B6
:100E5C0000F091FE08210C4800F08DFE00221021BC
:100E6C00094800F070FE00222021074800F06BFEBC
:100E7C0000220221044800F066FE002204210248F0
:100E8C0000F061FE00BF80BD0008014080B500AFDE
:100E9C0010210C4800F06FFE02210A4800F06BFE96
:100EAC002021084800F067FE0421064800F063FE8C
:100EBC004021044800F05FFE0821024800F05BFE70
:100ECC0000BF80BD0008014080B500AF00F038FBCA
:100EDC0000F030F800F0B6F800F068F80F4801F0B8
:100EEC0091FA012264210E4800F020F905226421B8
:100EFC000C4800F01BF9012264210B4800F016F994
:100F0C0001226421094800F011F9012264210848EA
:100F1C0000F00CF900F09EF9FCE700BF8001002006
:100F2C000D050008AD04000819070008E1090008C8
:100F3C00750B000880B590B000AF07F1180328229C
:100F4C000021184601F0EAFD3B1D00221A605A6090
:100F5C009A60DA601A610223BB610123BB62102321
:100F6C00FB6200237B6307F11803184600F01CFE9C
:100F7C000346002B01D000F0D3F80F237B60002335
:100F8C00BB600023FB6000233B6100237B613B1DA6
:100F9C000021184601F08AF80346002B01D000F01E
:100FAC00BFF800BF4037BD4680BD000080B586B09D
:100FBC0000AF07F1080300221A605A609A60DA60E9
:100FCC003B4600221A605A601D4B4FF080421A605B
:100FDC001B4B41F63F725A60194B00229A60184B1A
:100FEC000922DA60164B00221A61154B00229A6115
:100FFC00134801F0B7F90346002B01D000F090F82C
:10100C004FF48053BB6007F1080319460C4801F0FC
:10101C0035FB0346002B01D000F082F800233B6027
:10102C0000237B603B461946054801F00DFD034645
:10103C00002B01D000F074F800BF1837BD4680BDFE
:10104C008001002080B586B000AF07F108030022B4
:10105C001A605A609A60DA60284B9B69274A43F001
:10106C0004039361254B9B6903F004037B607B684D
:10107C00224B9B69214A43F0080393611F4B9B69E8
:10108C0003F008033B603B68002243F6FE711C48EA
:10109C0000F059FD002248F20F011A4800F053FDF0
:1010AC0043F6FE73BB600123FB6000233B6102230C
:1010BC007B6107F108031946114800F0B1FB48F2B7
:1010CC000F03BB600123FB6000233B6102237B61A8
:1010DC0007F1080319460B4800F0A2FBF023BB6094
:1010EC000023FB6001233B6107F108031946054807
:1010FC0000F096FB00BF1837BD4680BD00100240C3
:10110C0000080140000C014080B582B000AF78604F
:10111C0000F04CF800F02CF900BF0837BD4680BD3C
:10112C0080B400AF72B600BF00BFFDE780B487B0DB
:10113C0000AFF860B9607A6000237B6102E07B69E4
:10114C0001337B61184A7B691B0113441B68002B1C
:10115C0002D07B69272BF2D97B69282B01D128235C
:10116C001CE0114A7B691B011344FA681A600E4A91
:10117C007B691B0113440433BA681A600A4A7B6901
:10118C001B01134408337A681A60074A7B691B01F8
:10119C0013440C3300221A707B69DBB218461C37DF
:1011AC00BD4680BC704700BFC801002080B483B02E
:1011BC0000AF00237B6042E0254A7B681B0113448F
:1011CC001B68002B38D0224A7B681B011344043364
:1011DC001B68002B23D11E4A7B681B0113440C3364
:1011EC001B780133D9B21A4A7B681B0113440C33A8
:1011FC000A461A70164A7B681B01134408331B6895
:10120C00002B19D0124A7B681B01134408331A684F
:10121C000F497B681B010B4404331A600CE00C4A29
:10122C007B681B01134404331B685A1E08497B68F6
:10123C001B010B4404331A607B6801337B607B68B1
:10124C00272BB9D900BF00BF0C37BD4680BC7047F7
:10125C00C801002080B582B000AF00237B602AE07B
:10126C00194A7B681B0113440C331B78002B1FD0CD
:10127C00154A7B681B0113441B689847124A7B680C
:10128C001B0113440C331B78013BD9B20E4A7B680B
:10129C001B0113440C330A461A700B4A7B681B0162
:1012AC00134408331B68002B02D1786800F00EF849
:1012BC007B6801337B607B68272BD1D900BF00BFD3
:1012CC000837BD4680BD00BFC801002080B485B082
:1012DC0000AF7860164A7B681B0113441B68002B17
:1012EC0002D10123FB6001E00023FB60104A7B6804
:1012FC001B01134400221A600D4A7B681B01134426
:10130C00043300221A600A4A7B681B011344083319
:10131C0000221A60064A7B681B0113440C3300221E
:10132C001A70FB68DBB218461437BD4680BC704798
:10133C00C801002080B483B000AF78603960094ADE
:10134C007B68002142F82310074B1B683A6892FB1C
:10135C00F3F206497B6841F8232000BF0C37BD46E9
:10136C0080BC704748040020480000207004002016
:10137C0080B483B000AF00237B601CE0124A7B6812
:10138C0052F82330002B13DB0F4A7B6852F82330C2
:10139C005A1E0D497B6841F823200B4A7B6852F892
:1013AC002330002B04DC094A7B68012142F823100E
:1013BC007B6801337B607B68092BDFDD00BF00BFDE
:1013CC000C37BD4680BC70477004002048040020D8
:1013DC0080B485B000AF154B9B69144A43F00103F0
:1013EC009361124B9B6903F00103BB60BB680F4B0D
:1013FC00DB690E4A43F08053D3610C4BDB6903F07D
:10140C0080537B607B680A4B5B68FB60FB6823F056
:10141C00E063FB60FB6843F08063FB60044AFB689D
:10142C00536000BF1437BD4680BC704700100240AB
:10143C000000014080B584B000AF78607B681B6809
:10144C00B3F1804F13D10C4BDB690B4A43F0010312
:10145C00D361094BDB6903F00103FB60FB680022DD
:10146C0000211C2000F0A5F91C2000F0BEF900BFE3
:10147C001037BD4680BD00BF0010024080B400AFE5
:10148C0000BFFDE780B400AF00BFFDE780B400AF44
:10149C0000BFFDE780B400AF00BFFDE780B400AF34
:1014AC0000BFFDE780B400AF00BFBD4680BC7047F5
:1014BC0080B400AF00BFBD4680BC704780B400AFA5
:1014CC0000BFBD4680BC704780B500AF00F07EF811
:1014DC0000BF80BD80B500AF024800F0DFFF00BF49
:1014EC0080BD00BF8001002080B400AF00BFBD46AE
:1014FC0080BC7047FFF7F8FF0B480C490C4A0023DF
:10150C0002E0D458C4500433C4188C42F9D3094AAD
:10151C00094C002301E013600432A242FBD301F01A
:10152C0005FBFFF7D1FC704700000020580000209D
:10153C00C42B0008580000209C040020FEE700008B
:10154C0080B500AF084B1B68074A43F010031360CB
:10155C00032000F023F90F2000F008F8FFF738FF04
:10156C000023184680BD00BF0020024080B582B029
:10157C0000AF7860124B1A68124B1B7819464FF467
:10158C007A73B3FBF1F3B2FBF3F3184600F03BF9BB
:10159C000346002B01D001230EE07B680F2B0AD8E9
:1015AC00002279684FF0FF3000F003F9064A7B689F
:1015BC001360002300E0012318460837BD4680BDA8
:1015CC004C000020540000205000002080B400AFDC
:1015DC00054B1B781A46054B1B681344034A1360D2
:1015EC0000BFBD4680BC704754000020980400200A
:1015FC0080B400AF024B1B681846BD4680BC7047D8
:10160C009804002080B485B000AF78607B6803F04C
:10161C000703FB600C4BDB68BB60BA684FF6FF033B
:10162C001340BB60FB681A02BB68134343F0BF63F3
:10163C0043F40033BB60044ABB68D36000BF14376B
:10164C00BD4680BC704700BF00ED00E080B400AF29
:10165C00044BDB681B0A03F007031846BD4680BC2D
:10166C00704700BF00ED00E080B483B000AF0346CC
:10167C00FB7197F90730002B0BDBFB7903F01F0292
:10168C00064997F907305B09012000FA02F241F88C
:10169C00232000BF0C37BD4680BC704700E100E042
:1016AC0080B483B000AF03463960FB7197F9073003
:1016BC00002B0ADB3B68DAB20C4997F907301201B0
:1016CC00D2B20B4483F800230AE03B68DAB2084933
:1016DC00FB7903F00F03043B1201D2B20B441A76D0
:1016EC0000BF0C37BD4680BC704700BF00E100E076
:1016FC0000ED00E080B489B000AFF860B9607A60AA
:10170C00FB6803F00703FB61FB69C3F10703042BC0
:10171C0028BF0423BB61FB690433062B02D9FB6988
:10172C00033B00E000237B614FF0FF32BB6902FA00
:10173C0003F3DA43BB681A407B699A404FF0FF31E0
:10174C007B6901FA03F3D9437B680B4013431846BA
:10175C002437BD4680BC704780B582B000AF78603E
:10176C007B68013BB3F1807F01D301230FE00A4A70
:10177C007B68013B53600F214FF0FF30FFF790FF68
:10178C00054B00229A60044B07221A60002318466E
:10179C000837BD4680BD00BF10E000E080B582B0C8
:1017AC0000AF78607868FFF72DFF00BF0837BD46A3
:1017BC0080BD80B586B000AF0346B9607A60FB731C
:1017CC0000237B61FFF742FF78617A68B96878691A
:1017DC00FFF790FF024697F90F3011461846FFF7B6
:1017EC005FFF00BF1837BD4680BD80B582B000AF2B
:1017FC000346FB7197F907301846FFF735FF00BF1A
:10180C000837BD4680BD80B582B000AF786078687F
:10181C00FFF7A2FF034618460837BD4680BD0000FF
:10182C0080B48BB000AF7860396000237B620023FA
:10183C003B6261E101227B6A02FA03F3FB613B68C4
:10184C001B68FA691340BB61BA69FB699A4240F0A4
:10185C0050813B685B68974A93425ED0954A9342AD
:10186C0075D8954A934258D0934A93426FD8934A6D
:10187C00934252D0914A934269D8914A93424CD0A8
:10188C008F4A934263D88F4A934246D08D4A9342F3
:10189C005DD8122B2AD8122B59D801A252F823F05A
:1018AC002719000801190008131900085519000818
:1018BC005B1900085B1900085B1900085B1900082C
:1018CC005B1900085B1900085B1900085B1900081C
:1018DC005B1900085B1900085B1900085B1900080C
:1018EC005B190008091900081D190008764A934273
:1018FC0013D02CE03B68DB683B6229E03B68DB687B
:10190C0004333B6224E03B68DB6808333B621FE036
:10191C003B68DB680C333B621AE03B689B68002B2E
:10192C0002D104233B6213E03B689B68012B05D179
:10193C0008233B627B68FA691A6109E008233B6261
:10194C007B68FA695A6103E000233B6200E000BF48
:10195C00BB69FF2B01D87B6801E07B6804337B619A
:10196C00BB69FF2B02D87B6A9B0002E07B6A083BB9
:10197C009B003B617B691A680F213B6901FA03F3F9
:10198C00DB431A40396A3B6901FA03F31A437B695A
:10199C001A603B685B6803F08053002B00F0A98051
:1019AC004A4B9B69494A43F001039361474B9B693E
:1019BC0003F00103BB60BB68454A7B6A9B0802339A
:1019CC0052F82330FB607B6A03F003039B000F2269
:1019DC0002FA03F3DB43FA681340FB607B683D4A71
:1019EC0093420DD07B683C4A934207D07B683B4ABC
:1019FC00934201D1022304E0032302E0012300E01F
:101A0C0000237A6A02F0030292009340FA681343AF
:101A1C00FB602F497B6A9B080233FA6841F823204C
:101A2C003B685B6803F48013002B06D02C4B9A6840
:101A3C002B49BB6913438B6006E0294B9A68BB6941
:101A4C00DB43274913408B603B685B6803F400134E
:101A5C00002B06D0224BDA682149BB691343CB60BB
:101A6C0006E01F4BDA68BB69DB431D491340CB60B2
:101A7C003B685B6803F40033002B06D0184B5A68A4
:101A8C001749BB6913434B6006E0154B5A68BB6999
:101A9C00DB43134913404B603B685B6803F48033B2
:101AAC00002B1FD00E4B1A680D49BB6913430B60FA
:101ABC001FE000BF000032100000311000002210A7
:101ACC000000211000001210000011100010024044
:101ADC000000014000080140000C014000100140D2
:101AEC00000401400B4B1A68BB69DB4309491340E6
:101AFC000B607B6A01337B623B681A687B6A22FA53
:101B0C0003F3002B7FF496AE00BF00BF2C37BD460D
:101B1C0080BC70470004014080B485B000AF786091
:101B2C000B467B807B689A687B881340002B02D025
:101B3C000123FB7301E00023FB73FB7B1846143776
:101B4C00BD4680BC704780B483B000AF78600B4654
:101B5C007B8013467B707B78002B03D07A887B6864
:101B6C001A6103E07B881A047B681A6100BF0C378A
:101B7C00BD4680BC704780B485B000AF78600B4622
:101B8C007B807B68DB68FB607A88FB6813401A04F7
:101B9C00FB68D9437B880B401A437B681A6100BFF2
:101BAC001437BD4680BC704780B586B000AF7860F6
:101BBC007B68002B01D1012372E27B681B6803F068
:101BCC000103002B00F08780924B5B6803F00C0341
:101BDC00042B0CD08F4B5B6803F00C03082B12D139
:101BEC008C4B5B6803F48033B3F5803F0BD1894B8E
:101BFC001B6803F40033002B6CD07B685B68002BF4
:101C0C0068D101234CE27B685B68B3F5803F06D159
:101C1C00804B1B687F4A43F4803313602EE07B6853
:101C2C005B68002B0CD17B4B1B687A4A23F4803306
:101C3C001360784B1B68774A23F4802313601DE0F4
:101C4C007B685B68B3F5A02F0CD1724B1B68714A93
:101C5C0043F4802313606F4B1B686E4A43F480334C
:101C6C0013600BE06B4B1B686A4A23F480331360E0
:101C7C00684B1B68674A23F4802313607B685B689E
:101C8C00002B13D0FFF7B4FC386108E0FFF7B0FC71
:101C9C0002463B69D31A642B01D9032300E25D4B46
:101CAC001B6803F40033002BF0D014E0FFF7A0FC0A
:101CBC00386108E0FFF79CFC02463B69D31A642BA1
:101CCC0001D90323ECE1534B1B6803F40033002BC5
:101CDC00F0D100E000BF7B681B6803F00203002B0F
:101CEC0063D04C4B5B6803F00C03002B0BD0494BBF
:101CFC005B6803F00C03082B1CD1464B5B6803F4A8
:101D0C008033002B16D1434B1B6803F00203002BCE
:101D1C0005D07B681B69012B01D00123C0E13D4B31
:101D2C001B6823F0F8027B685B69DB0039491343BD
:101D3C000B603AE07B681B69002B20D0364B0122EC
:101D4C001A60FFF755FC386108E0FFF751FC0246BA
:101D5C003B69D31A022B01D90323A1E12D4B1B683C
:101D6C0003F00203002BF0D02A4B1B6823F0F8027F
:101D7C007B685B69DB00274913430B6015E0264B3E
:101D8C0000221A60FFF734FC386108E0FFF730FCE2
:101D9C0002463B69D31A022B01D9032380E11D4B68
:101DAC001B6803F00203002BF0D17B681B6803F067
:101DBC000803002B3AD07B689B69002B19D0174B7A
:101DCC0001221A60FFF714FC386108E0FFF710FCE1
:101DDC0002463B69D31A022B01D9032360E10D4B58
:101DEC005B6A03F00203002BF0D0012000F09CFA98
:101DFC001CE00A4B00221A60FFF7FAFB38610FE077
:101E0C00FFF7F6FB02463B69D31A022B08D90323D2
:101E1C0046E100BF001002400000424280044242F2
:101E2C00924B5B6A03F00203002BE9D17B681B68C1
:101E3C0003F00403002B00F0A6800023FB758B4BF2
:101E4C00DB6903F08053002B0DD1884BDB69874A8B
:101E5C0043F08053D361854BDB6903F08053BB6047
:101E6C00BB680123FB75824B1B6803F48073002B4A
:101E7C0018D17F4B1B687E4A43F480731360FFF7C5
:101E8C00B7FB386108E0FFF7B3FB02463B69D31A96
:101E9C00642B01D9032303E1754B1B6803F4807396
:101EAC00002BF0D07B68DB68012B06D16F4B1B6AD3
:101EBC006E4A43F0010313622DE07B68DB68002B54
:101ECC000CD16A4B1B6A694A23F001031362674BFE
:101EDC001B6A664A23F0040313621CE07B68DB6810
:101EEC00052B0CD1614B1B6A604A43F0040313624F
:101EFC005E4B1B6A5D4A43F0010313620BE05B4BC4
:101F0C001B6A5A4A23F001031362584B1B6A574A47
:101F1C0023F0040313627B68DB68002B15D0FFF7FA
:101F2C0067FB38610AE0FFF763FB02463B69D31A93
:101F3C0041F28832934201D90323B1E04B4B1B6A27
:101F4C0003F00203002BEED014E0FFF751FB3861D5
:101F5C000AE0FFF74DFB02463B69D31A41F2883287
:101F6C00934201D903239BE0404B1B6A03F002030D
:101F7C00002BEED1FB7D012B05D13C4BDB693B4AA1
:101F8C0023F08053D3617B68DB69002B00F08780E2
:101F9C00364B5B6803F00C03082B61D07B68DB6964
:101FAC00022B46D1334B00221A60FFF721FB38611C
:101FBC0008E0FFF71DFB02463B69D31A022B01D93F
:101FCC0003236DE0294B1B6803F00073002BF0D149
:101FDC007B681B6AB3F5803F08D1244B5B6823F404
:101FEC0000327B689B68214913434B601F4B5B6835
:101FFC0023F474127B68196A7B685B6A0B431B4978
:10200C0013434B601B4B01221A60FFF7F1FA386146
:10201C0008E0FFF7EDFA02463B69D31A022B01D90F
:10202C0003233DE0114B1B6803F00073002BF0D031
:10203C0035E0104B00221A60FFF7DAFA386108E03D
:10204C00FFF7D6FA02463B69D31A022B01D90323B8
:10205C0026E0064B1B6803F00073002BF0D11EE04A
:10206C007B68DB69012B07D1012319E000100240CA
:10207C0000700040600042420B4B5B68FB60FB68E9
:10208C0003F480327B681B6A9A4206D1FB6803F426
:10209C0070127B685B6A9A4201D0012300E0002336
:1020AC0018461837BD4680BD0010024080B584B07C
:1020BC0000AF786039607B68002B01D10123D0E040
:1020CC006A4B1B6803F007033A689A4210D9674BB6
:1020DC001B6823F0070265493B6813430B60634B95
:1020EC001B6803F007033A689A4201D00123B8E059
:1020FC007B681B6803F00203002B20D07B681B68F5
:10210C0003F00403002B05D0594B5B68584A43F489
:10211C00E06353607B681B6803F00803002B05D059
:10212C00534B5B68524A43F460535360504B5B68AB
:10213C0023F0F0027B689B684D4913434B607B682E
:10214C001B6803F00103002B40D07B685B68012BFC
:10215C0007D1474B1B6803F40033002B15D1012327
:10216C007FE07B685B68022B07D1414B1B6803F057
:10217C000073002B09D1012373E03D4B1B6803F066
:10218C000203002B01D101236BE0394B5B6823F078
:10219C0003027B685B68364913434B60FFF728FAF0
:1021AC00F8600AE0FFF724FA0246FB68D31A41F202
:1021BC008832934201D9032353E02D4B5B6803F023
:1021CC000C027B685B689B009A42EBD1274B1B6827
:1021DC0003F007033A689A4210D2244B1B6823F091
:1021EC00070222493B6813430B60204B1B6803F02A
:1021FC0007033A689A4201D0012332E07B681B68DE
:10220C0003F00403002B08D0194B5B6823F4E06245
:10221C007B68DB68164913434B607B681B6803F0D3
:10222C000803002B09D0124B5B6823F460527B68C7
:10223C001B69DB000E4913434B6000F021F802468A
:10224C000B4B5B681B0903F00F030A49CB5C22FAAA
:10225C0003F3094A1360094B1B681846FFF786F90C
:10226C00002318461037BD4680BD00BF0020024039
:10227C0000100240982B00084C0000205000002059
:10228C0080B487B000AF0023FB600023BB60002349
:10229C007B6100237B6000233B611E4B5B68FB6012
:1022AC00FB6803F00C03042B02D0082B03D027E0AF
:1022BC00194B3B6127E0FB689B0C03F00F03174A9B
:1022CC00D35C7B60FB6803F48033002B10D0114B84
:1022DC005B685B0C03F00103114AD35CBB607B6849
:1022EC000D4A03FB02F2BB68B2FBF3F37B6104E023
:1022FC007B680C4A02FB03F37B617B693B6102E068
:10230C00054B3B6100BF3B6918461C37BD4680BC82
:10231C00704700BF0010024000127A00A82B000882
:10232C00B82B000800093D0080B485B000AF786080
:10233C000A4B1B680A4AA2FB03235B0A7A6802FB5E
:10234C0003F3FB6000BFFB685A1EFA60002BF9D147
:10235C0000BF00BF1437BD4680BC70474C00002046
:10236C00D34D621080B582B000AF78607B68002BD3
:10237C0001D1012341E07B6893F83D30DBB2002BA7
:10238C0006D17B68002283F83C207868FFF752F86E
:10239C007B68022283F83D207B681A687B680433D3
:1023AC001946104600F056FA7B68012283F8462045
:1023BC007B68012283F83E207B68012283F83F2052
:1023CC007B68012283F840207B68012283F841203E
:1023DC007B68012283F842207B68012283F843202A
:1023EC007B68012283F844207B68012283F8452016
:1023FC007B68012283F83D20002318460837BD4630
:10240C0080BD000080B485B000AF78607B6893F825
:10241C003D30DBB2012B01D0012335E07B68022279
:10242C0083F83D207B681B68DA687B681B6842F088
:10243C000102DA607B681B68164A934209D07B68FC
:10244C001B68B3F1804F04D07B681B68124A93421F
:10245C0011D17B681B689B6803F00703FB60FB686A
:10246C00062B10D07B681B681A687B681B6842F0CF
:10247C0001021A6007E07B681B681A687B681B689E
:10248C0042F001021A60002318461437BD4680BC86
:10249C00704700BF002C01400004004080B584B0A0
:1024AC0000AF78607B681B68DB68FB607B681B682F
:1024BC001B69BB60BB6803F00203002B20D0FB68D8
:1024CC0003F00203002B1BD07B681B686FF0020229
:1024DC001A617B6801221A777B681B689B6903F081
:1024EC000303002B03D0786800F098F905E07868B6
:1024FC0000F08BF9786800F09AF97B6800221A7763
:10250C00BB6803F00403002B20D0FB6803F004032A
:10251C00002B1BD07B681B686FF004021A617B6870
:10252C0002221A777B681B689B6903F44073002BAB
:10253C0003D0786800F072F905E0786800F065F96E
:10254C00786800F074F97B6800221A77BB6803F096
:10255C000803002B20D0FB6803F00803002B1BD0D2
:10256C007B681B686FF008021A617B6804221A777B
:10257C007B681B68DB6903F00303002B03D07868CE
:10258C0000F04CF905E0786800F03FF9786800F04D
:10259C004EF97B6800221A77BB6803F01003002BFE
:1025AC0020D0FB6803F01003002B1BD07B681B684A
:1025BC006FF010021A617B6808221A777B681B681F
:1025CC00DB6903F44073002B03D0786800F026F924
:1025DC0005E0786800F019F9786800F028F97B6854
:1025EC0000221A77BB6803F00103002B0CD0FB68A8
:1025FC0003F00103002B07D07B681B686FF001020E
:10260C001A617868FEF780FDBB6803F08003002B2D
:10261C000CD0FB6803F08003002B07D07B681B6891
:10262C006FF080021A61786800F06FFABB6803F0F3
:10263C004003002B0CD0FB6803F04003002B07D0A9
:10264C007B681B686FF040021A61786800F0F8F83C
:10265C00BB6803F02003002B0CD0FB6803F02003B5
:10266C00002B07D07B681B686FF020021A6178681A
:10267C0000F042FA00BF1037BD4680BD80B584B073
:10268C0000AF786039600023FB737B6893F83C30B3
:10269C00012B01D10223B4E07B68012283F83C209A
:1026AC007B68022283F83D207B681B689B68BB60BB
:1026BC00BB6823F07703BB60BB6823F47F43BB602C
:1026CC007B681B68BA689A603B681B68B3F5005F4F
:1026DC003ED0B3F5005F00F28780B3F5805F00F069
:1026EC008680B3F5805F7FD8702B1AD0702B7BD887
:1026FC00602B50D0602B77D8502B3CD0502B73D8FC
:10270C00402B58D0402B6FD8302B64D0302B6BD84B
:10271C00202B60D0202B67D8002B5CD0102B5AD0EC
:10272C0062E07B6818683B6899683B685A683B684C
:10273C00DB6800F06AF97B681B689B68BB60BB6850
:10274C0043F07703BB607B681B68BA689A604FE004
:10275C007B6818683B6899683B685A683B68DB681B
:10276C0000F053F97B681B689A687B681B6842F41D
:10277C0080429A603CE07B6818683B6859683B680B
:10278C00DB681A4600F0CAF87B681B6850211846B3
:10279C0000F021F92CE07B6818683B6859683B68AD
:1027AC00DB681A4600F0E8F87B681B686021184665
:1027BC0000F011F91CE07B6818683B6859683B68AD
:1027CC00DB681A4600F0AAF87B681B6840211846A3
:1027DC0000F001F90CE07B681A683B681B6819462D
:1027EC00104600F0F8F803E00123FB7300E000BF93
:1027FC007B68012283F83D207B68002283F83C2013
:10280C00FB7B18461037BD4680BD80B483B000AF4B
:10281C00786000BF0C37BD4680BC704780B483B075
:10282C0000AF786000BF0C37BD4680BC704780B4E9
:10283C0083B000AF786000BF0C37BD4680BC7047DA
:10284C0080B483B000AF786000BF0C37BD4680BC4D
:10285C007047000080B485B000AF786039607B6849
:10286C001B68FB607B682B4A934207D07B68B3F1F3
:10287C00804F03D07B68284A934208D1FB6823F031
:10288C007003FB603B685B68FA681343FB607B6812
:10289C00204A934207D07B68B3F1804F03D07B680A
:1028AC001D4A934208D1FB6823F44073FB603B68DC
:1028BC00DB68FA681343FB60FB6823F080023B681B
:1028CC005B691343FB607B68FA681A603B689A6823
:1028DC007B68DA623B681A687B689A627B680D4A8F
:1028EC00934203D13B681A697B681A637B680122A7
:1028FC005A617B681B6903F00103002B05D07B68D0
:10290C001B6923F001027B681A6100BF1437BD46B6
:10291C0080BC7047002C01400004004080B487B09C
:10292C0000AFF860B9607A60FB681B6A7B61FB687A
:10293C001B6A23F00102FB681A62FB689B693B610E
:10294C003B6923F0F0033B617B681B013A6913433D
:10295C003B617B6923F00A037B617A69BB68134393
:10296C007B61FB683A699A61FB687A691A6200BFFD
:10297C001C37BD4680BC704780B487B000AFF86090
:10298C00B9607A60FB681B6A7B61FB681B6A23F089
:10299C001002FB681A62FB689B693B613B6923F47C
:1029AC0070433B617B681B033A6913433B617B6952
:1029BC0023F0A0037B61BB681B017A6913437B6125
:1029CC00FB683A699A61FB687A691A6200BF1C3726
:1029DC00BD4680BC704780B485B000AF786039606C
:1029EC007B689B68FB60FB6823F07003FB603A68B4
:1029FC00FB68134343F00703FB607B68FA689A603B
:102A0C0000BF1437BD4680BC704780B487B000AFA0
:102A1C00F860B9607A603B60FB689B687B617B699E
:102A2C0023F47F437B613B681A027B681A43BB68C3
:102A3C0013437A6913437B61FB687A699A6000BF20
:102A4C001C37BD4680BC704780B485B000AF786041
:102A5C0039607B6893F83C30012B01D1022341E0B3
:102A6C007B68012283F83C207B68022283F83D209E
:102A7C007B681B685B68FB607B681B689B68BB6042
:102A8C00FB6823F07003FB603B681B68FA68134318
:102A9C00FB607B681B68FA685A607B681B68144A89
:102AAC00934209D07B681B68B3F1804F04D07B68DC
:102ABC001B68104A93420CD1BB6823F08003BB60A7
:102ACC003B685B68BA681343BB607B681B68BA6879
:102ADC009A607B68012283F83D207B68002283F892
:102AEC003C20002318461437BD4680BC704700BFFD
:102AFC00002C01400004004080B483B000AF78602B
:102B0C0000BF0C37BD4680BC704780B483B000AFAB
:102B1C00786000BF0C37BD4680BC7047034602444A
:102B2C00934200D1704703F8011BF9E770B50026FA
:102B3C000C4D0D4C641BA410A64209D100F01AF8E0
:102B4C0000260A4D0A4C641BA410A64205D170BD88
:102B5C0055F8043B98470136EEE755F8043B984787
:102B6C000136F2E7BC2B0008BC2B0008BC2B00087C
:102B7C00C02B0008F8B500BFF8BC08BC9E467047D7
:0C2B8C00F8B500BFF8BC08BC9E467047BE
:102B98000000000000000000010203040607080905
:102BA80002030405060708090A0B0C0D0E0F101086
:042BB8000102000016
:042BBC0031010008DB
:042BC0000D010008FB
:102BC40001000000020000000300000004000000F7
:102BD400F4010000000000000000000000000000FC
:102BE40000000000000000000000000000000000E1
:102BF40000000000000000000100000005000000CB
:102C040002000000030000000A00000000127A0025
:082C14001000000001000000A7
:0400000508001501D9
:00000001FF
